:060000000A128A110E280D
:10000800FE00030E83120313AC000A08AD000A12A7
:100018008A113F280A128A1111280A128A1501200A
:100028000A128A11DD000A128A1502200A128A11A0
:10003800DE000A128A1503200A128A11DF000A124A
:100048008A1504200A128A11E0008313D83084002C
:10005800EC300A168A1107260A128A1153308400D6
:100068005D300A168A1107260A128A11FD018301DA
:100078000A128A152D2E0C1F42284328B6281F0C59
:10008800AA002A0C0F39003A031D4B284C28602877
:100098001E08AA00AB012A0883160313E80083127E
:1000A80003132B0883160313E900831203131F0895
:1000B800C33904389F00B5281F0CAA002A0C0F3931
:1000C800013A031D682869287D281E08AA00AB018B
:1000D8002A0883160313E600831203132B088316DA
:1000E8000313E700831203131F08C33908389F005E
:1000F800B5281F0CAA002A0C0F39023A031D8528BF
:1001080086289A281E08AA00AB012A08831603131A
:10011800E200831203132B0883160313E3008312F0
:1001280003131F08C3390C389F00B5281F0CAA00F9
:100138002A0C0F39033A031DA228A328B5281E0844
:10014800AA00AB012A0883160313E40083120313E1
:100158002B0883160313E500C330831203139F058E
:10016800B5280C138C1EB928BA28992A02305B06C8
:10017800031DBF28C028DB295A03031DC428C5282E
:10018800DB291A08D700831203135708031DCD284B
:10019800CE2800295503031DD228D328D828193082
:1001A800D3000030D400952A02305506031DDD28FF
:1001B800DE28E528143083160313E0000030E10040
:1001C800952A03305506031DEA28EB28F228143037
:1001D80083160313DE000030DF00952A043055062D
:1001E800031DF728F828FF28193083160313DC00AD
:1001F8000030DD00952A952A5703031D0429052997
:100208000829D501D50A952A02305706031D0D295C
:100218000E2911290230D500952A03305706031DEF
:10022800162917291A290330D500952A04305706AC
:10023800031D1F29202923290430D500952A0530BC
:100248005706031D282929295A295503031D2D2935
:100258002E2933293C30D3000030D400952A0230AF
:100268005506031D3829392940292A3083160313D6
:10027800E0000030E100952A03305506031D4529AA
:1002880046294D29503083160313DE000030DF0065
:10029800952A04305506031D52295329FF283C305E
:1002A80083160313DC000030DD00952A5503031D77
:1002B8005E295F297529A401FF30A5001E30A6001C
:1002C8003C30A70057080A168A11E9260A128A1133
:1002D80083120313AA00AB012A08D3002B08D40009
:1002E800952A02305506031D7A297B299729A401EE
:1002F800FF30A5001E30A6002B30A70057080A16AD
:100308008A11E9260A128A1183120313AA00AB0183
:100318002A0883160313E000831203132B0883169D
:100328000313E100952A03305506031D9C299D29D6
:10033800B929A401FF30A5001430A6005030A70049
:1003480057080A168A11E9260A128A11831203131A
:10035800AA00AB012A0883160313DE0083120313D5
:100368002B0883160313DF00952A04305506031D56
:10037800BE29BF29FF28A401FF30A5001930A60017
:100388003C30A70057080A168A11E9260A128A1172
:1003980083120313AA00AB012A0883160313DC0097
:1003A800831203132B0883160313DD00952A0330E9
:1003B8005B06031DE029E129952A5A03031DE52957
:1003C800E629952A1A08D600831203135608031D36
:1003D800EE29EF29F129DC01952A5603031DF52999
:1003E800F629F729052902305606031DFC29FD299F
:1003F800FE290E2903305606031D032A042A052A5E
:10040800172904305606031D0A2A0B2A0C2A20290C
:10041800560A031D102A112A152ADC01DC0AD60106
:10042800952A5503031D192A1A2A302AA401FF30D8
:10043800A5001E30A6003C30A70056080A168A11EF
:10044800E9260A128A1183120313AA00AB012A08AB
:10045800D3002B08D400952A02305506031D352AEF
:10046800362A522AA401FF30A5001E30A6002B30E0
:10047800A70056080A168A11E9260A128A11831259
:100488000313AA00AB012A0883160313E0008312A2
:1004980003132B0883160313E100952A033055062E
:1004A800031D572A582A742AA401FF30A5001430C6
:1004B800A6005030A70056080A168A11E9260A1223
:1004C8008A1183120313AA00AB012A0883160313A7
:1004D800DE00831203132B0883160313DF00952A0B
:1004E80004305506031D792A7A2AFF28A401FF3013
:1004F800A5001930A6003C30A70056080A168A1134
:10050800E9260A128A1183120313AA00AB012A08EA
:1005180083160313DC00831203132B0883160313BB
:10052800DD0083128C12560888000B1C9C2A9D2A19
:10053800B72B0618A02AA12AAC2A0130AA002A083B
:10054800DB0704305B06031DAA2AAB2AAC2ADB01B1
:100558008618AF2AB02AB32A5A08013ADA000619CF
:10056800B62AB72AE42A5B08031DBB2ABC2AE42A58
:100578005A03031DC02AC12AE42A5908013AD9009E
:100588005908031DC82AC92AD42A1930D3000030B3
:10059800D400193083160313DC000030DD00E42A90
:1005A8005903031DD82AD92AE42A3C30D300003045
:1005B800D4003C3083160313DC000030DD00E42A4D
:1005C80083128619E82AE92A162B5B08031DED2AEF
:1005D800EE2A162B5A03031DF22AF32A162B580863
:1005E800013AD8005808031DFA2AFB2A062B1430B2
:1005F80083160313E0000030E1001430DE00003001
:10060800DF00162B5803031D0A2B0B2B162B2A3041
:1006180083160313E0000030E1005030DE000030A4
:10062800DF00162B8312061A1A2B1B2BB72B5B081D
:10063800031D1F2B202B742B5A03031D242B252B42
:10064800742B60080A168A110F260A128A1183125F
:100658000313AA00AB012A08D3002B08D4005F08B3
:100668000A168A110F260A128A1183120313AA0086
:10067800AB012A0883160313E000831203132B0827
:1006880083160313E100831203135E080A168A1106
:100698000F260A128A1183120313AA00AB012A0833
:1006A80083160313DE00831203132B088316031328
:1006B800DF00831203135D080A168A110F260A1237
:1006C8008A1183120313AA00AB012A0883160313A5
:1006D800DC00831203132B0883160313DD00B72BEA
:1006E8005B03031D782B792BAB2B5A03031D7D2B42
:1006F8007E2BAB2B5308F00060080A168A113E26A1
:100708000A128A11831603136008F0008312031378
:100718005F080A168A113E260A128A1183160313E5
:100728005E08F000831203135E080A168A113E263B
:100738000A128A11831603135C08F000831203134C
:100748005D080A168A113E260A128A11B72B023052
:100758005B06031DB02BB12BB72B5A03031DB52B1A
:10076800B62BB72BB72B0B10523083120313AA00EA
:10077800AA0BBC2B0000831203132D088A002C0E31
:100788008300FE0E7E0E0900831203133A08803997
:10079800C4003A08BF003F07CA00B91FD42BD52BA5
:1007A800D62B4A144A080319DA2BDB2BEA2B4A0A00
:1007B800031DDF2BE02BE82B0030BA000030B90016
:1007C8000030B8000030B700B917F22B0030BA007B
:1007D8000030B9000030B8000030B7003E0880395A
:1007E800BF003F08C4063E08BF003F07C900BD1F41
:1007F800FE2BFF2B002C491449080319042C052C47
:10080800142C490A031D092C0A2C122C0030BE0096
:100818000030BD000030BC000030BB00BD171C2CF0
:100828000030BE000030BD000030BC000030BB000E
:1008380049080319202C212C262C4A08031D252C95
:10084800262C2F2C0030BA000030B9000030B80038
:100858000030B7000C2F3708AE003D080A168A1181
:10086800C0260A128A11831203132F08D0002E08FB
:10087800CF004F08BF00C001C101C2014208C80033
:100888004108C7004008C6003F08C5005008BF001F
:10089800C001C101C2014208CE004108CD00400894
:1008A800CC003F08CB003808AE003C080A168A1175
:1008B800C0260A128A11831203132F08D0002E08AB
:1008C800CF004F08BF00C001C101C2013F08C507E2
:1008D800400803110318013E0319732CC607410889
:1008E80003110318013E03197A2CC70742080311A4
:1008F8000318013E0319812CC8075008BF00C00126
:10090800C101C2013F08CB07400803110318013E8B
:1009180003198F2CCC07410803110318013E031952
:10092800962CCD07420803110318013E03199D2C8C
:10093800CE073908AE003B080A168A11C0260A12EB
:100948008A11831203132F08D0002E08CF004F08F6
:10095800BF00C001C101C2013F08C507400803111B
:100968000318013E0319B92CC607410803110318DF
:10097800013E0319C02CC707420803110318013EA2
:100988000319C72CC8075008BF00C001C101C20124
:100998003F08CB07400803110318013E0319D52C63
:1009A800CC07410803110318013E0319DC2CCD07BD
:1009B800420803110318013E0319E32CCE0708303F
:1009C800BF000310C50DC60DC70DC80DBF0BE52C24
:1009D8003808AE003B080A168A11C0260A128A1186
:1009E800831203132F08D0002E08CF004F08BF0032
:1009F8005008C000C101C2013F08C50740080311E3
:100A08000318013E0319092DC607410803110318ED
:100A1800013E0319102DC707420803110318013EB0
:100A28000319172DC8073708AE003C080A168A11A3
:100A3800C0260A128A11831203132F08D0002E0829
:100A4800CF004F08BF005008C000C101C2013F08D5
:100A5800C507400803110318013E0319342DC607C2
:100A6800410803110318013E03193B2DC70742082B
:100A780003110318013E0319422DC8070830BF00AF
:100A88000310C50DC60DC70DC80DBF0B442D370883
:100A9800AE003B080A168A11C0260A128A11831270
:100AA80003132F08D0002E08CF004F08BF005008AE
:100AB800C000C101C2013F08C5074008031103185F
:100AC800013E0319682DC607410803110318013EAA
:100AD80003196F2DC707420803110318013E0319B4
:100AE800762DC8073808AE003D080A168A11C026B8
:100AF8000A128A11831203132F08D0002E08CF0080
:100B08004F08BF005008C000C101C2013F08CB0711
:100B1800400803110318013E0319932DCC0741081F
:100B280003110318013E03199A2DCD07420803113A
:100B38000318013E0319A12DCE073908AE003C0861
:100B48000A168A11C0260A128A11831203132F0863
:100B5800D0002E08CF004F08BF005008C000C101C8
:100B6800C2013F08CB07400803110318013E0319CF
:100B7800BE2DCC07410803110318013E0319C52DEA
:100B8800CD07420803110318013E0319CC2DCE07E7
:100B98003908AE003D080A168A11C0260A128A11C1
:100BA800831203132F08D0002E08CF004F08BF0070
:100BB8005008C000C101C20108300310BF0DC00DAC
:100BC800C10DC20DFF3E031DE12D3F08CB074008B4
:100BD80003110318013E0319F22DCC074108031134
:100BE8000318013E0319F92DCD0742080311031814
:100BF800013E0319002ECE074508BF004608C00075
:100C08004708C1004808C20018300310C20CC10CC4
:100C1800C00CBF0CFF3E031D092E3F08CB07400840
:100C280003110318013E03191A2ECC0741080311BA
:100C38000318013E0319212ECD074208031103189A
:100C4800013E0319282ECE070830BF000310C50D3A
:100C5800C60DC70DC80DBF0B2A2E4A084907BF008D
:100C6800C001C00D3F08823ECF0040080318013E76
:100C7800FF3ED0005C2E0130BF000310CB0DCC0D21
:100C8800CD0DCE0DBF0B412EC81F4B2E4C2E4D2E19
:100C98004B140130BF000310C50DC60DC70DC80D9C
:100CA800BF0B4F2EFF30CF070318D00AFF30D007F5
:100CB800CD1F5F2E602E3F2EC901C81F642E652EE2
:100CC800812EFF304505BF00FF304605C000FF30CC
:100CD8004705C1007F304805C2004208410440046E
:100CE8003F040319782E792E7C2EC901C90A812E5A
:100CF8004B1C7F2E802E812E792E49080319852EB4
:100D0800862EB72E0130CB07003003180130CC07F0
:100D1800003003180130CD07003003180130CE072A
:100D28004E1C972E982EB72E4B08BF004C08C000BB
:100D38004D08C1004E08C2000130C300420DC20C6C
:100D4800C10CC00CBF0CC30BA22E4208CE00410838
:100D5800CD004008CC003F08CB000130CF07031876
:100D6800D00A0030D0075008803AFF0080307F0258
:100D7800031DC02EFF304F02031CC32EC42ECF2EDE
:100D88007F3083120313CE008030CD000030CC00BA
:100D98000030CB00002F831203135008803AFF0065
:100DA80080307F02031DDA2E01304F020318DD2E3A
:100DB800DE2EEA2E003083120313CE000030CD0061
:100DC8000030CC000030CB00C401002F8312031385
:100DD8004F08CA00FF30CB05FF30CC057F30CD056A
:100DE8000030CE054A1CF92EFA2EFB2ECD174A08E4
:100DF800BF0003103F0CCE004408BF003F08CE04DC
:100E08004E08BA004D08B9004C08B8004B08B700A6
:100E180008008312031398175308990005308312AA
:100E28000313B500DD30B400B40B182FB50B182F21
:100E38000A30831203139900053083120313B50097
:100E4800DD30B400B40B262FB50B262F8316031301
:100E58006008831203139900053083120313B50049
:100E6800DD30B400B40B362FB50B362F0A308312A1
:100E780003139900053083120313B500DD30B40065
:100E8800B40B442FB50B442F831603135E0883124B
:100E980003139900053083120313B500DD30B40045
:100EA800B40B542FB50B542F0A3083120313990037
:100EB800053083120313B500DD30B400B40B622F84
:100EC800B50B622F831603135C0883120313990072
:100ED800053083120313B500DD30B400B40B722F54
:100EE800B50B722F0A308312031399000530831251
:100EF8000313B500DD30B400B40B802FB50B802F81
:100F080083120313981312117030831603138F047E
:100F1800831203135408AF005308AE000130B00029
:100F28000030B1000A168A1147270A128A1183165F
:100F380003135D0883120313AF00831603135C08C1
:100F480083120313AE000830B0000030B1000A1657
:100F58008A1147270A128A11831603130F088F393B
:100F680030388F008312031312150230AE000030A0
:100F7800AF0083160313610883120313B1008316AD
:100F88000313600883120313B0000A168A11B727E7
:100F98000A128A11013083120313AE000030AF0029
:100FA800831603135F0883120313B1008316031318
:100FB8005E0883120313B0000A168A11B7270A12B3
:100FC8008A11043083120313B5003D30B400B40B0A
:100FD800EB2FB50BEB2F831203131211703083160E
:100FE80003138F04831203135A08031DFC2FFD2FCC
:040FF8000D2F0800B1
:10100200073406340534043483120313A101F71F95
:101012000B280C281328F609F709F60A0319F70A10
:10102200A101A10AF91F162817282028F809F90991
:10103200F80A0319F90A0130FA007A08A106A20196
:10104200A301760877040319272828285F28A0011E
:10105200A00A362801300310F60DF70DFF3E031DDE
:101062002C280130FA007A08A007F71F39283A28FD
:101072002B2801300310A20DA30DFF3E031D3B28B8
:1010820077087902031D472876087802031C4A284C
:101092004B2852287608F8027708031CF903F90254
:1010A200221401300310F70CF60CFF3E031D5328E7
:1010B2000130A002031D5E285F283A282108031987
:1010C200632864286928A209A309A20A0319A30AAA
:1010D2002308F7002208F600080083120313BA015E
:1010E200B51F742875287C28B409B509B40A0319F8
:1010F200B50ABA01BA0AB71F7F2880288928B6091B
:10110200B709B60A0319B70A0130B8003808BA0697
:10111200BB01BC0134083504031990289128C82862
:10112200B901B90A9F2801300310B40DB50DFF3E75
:10113200031D95280130B8003808B907B51FA22849
:10114200A328942801300310BB0DBC0DFF3E031DE4
:10115200A42835083702031DB02834083602031CC0
:10116200B328B428BB283408B6023508031CB703D9
:10117200B7023B1401300310B50CB40CFF3E031D43
:10118200BC280130B902031DC728C828A3283A0881
:101192000319CC28CD28D228BB09BC09BB0A0319E4
:1011A200BC0A3C08B5003B08B400080083120313D4
:1011B20012117030831603138F0483120313540821
:1011C200AF005308AE000130B0000030B1000A1683
:1011D2008A1147270A128A15831603135D088312A0
:1011E2000313AF00831603135C0883120313AE00CC
:1011F2000830B0000030B1000A168A1147270A12DF
:101202008A15831603130F088F3930388F00831223
:10121200031312150230AE000030AF008316031321
:10122200610883120313B10083160313600883124B
:101232000313B0000A168A11B7270A128A15013061
:1012420083120313AE000030AF00831603135F084E
:1012520083120313B100831603135E088312031370
:10126200B0000A168A11B7270A128A1504308312AF
:101272000313B5003D30B400B40B3D29B50B3D2935
:101282008312031312117030831603138F04831217
:1012920003135A08031D4E294F29D72808000310AB
:1012A200831603133C0D3D0D83120313D200520823
:1012B200031D5C295D296829003083160313BD00D4
:1012C2000030BC000030BB000030BA00DD298316BC
:1012D20003133A08BE003B08BF003C08C0003D08AB
:1012E200C1001F300310C10CC00CBF0CBE0CFF3E6E
:1012F200031D73293E0883120313D10083160313BF
:10130200BC17FF30BA05FF30BB05FF30BC0500300B
:10131200BD05963083120313D202D21F912992295E
:10132200B0295208803A973E0318982999299A2998
:101332005D290130031083160313BD0CBC0CBB0CDA
:10134200BA0CFF3E031D9B290130BE003E088312EA
:101352000313D207031DAE29AF299A29CB292030C6
:101362005202031CB529B629C6295D29013083160C
:101372000313BE000310BA0DBB0DBC0DBD0DBE0B99
:10138200BB29013083120313D2025208031DCA295A
:10139200CB29B72951080319CF29D029DD29831672
:1013A2000313BA09BB09BC09BD09BA0A0319BB0A6E
:1013B2000319BC0A0319BD0A080083160313470860
:1013C200A7004608A6004508A5004408A40044302A
:1013D200A3007A30A2000030A1000030A0000A125F
:1013E2008A155A240A128A158316031323088312B4
:1013F2000313BE0083160313220883120313BD00D6
:1014020083160313210883120313BC0083160313EC
:10141200200883120313BB004830BA00F430B9002D
:101422002430B8000030B7000A128A11C8230A1209
:101432008A15831203133A0883160313CB0083120F
:101442000313390883160313CA00831203133808DF
:1014520083160313C9008312031337088316031379
:10146200C8004B08A7004A08A6004908A50048087A
:10147200A4004230A3008030A2000030A10000305E
:10148200A0000A128A155A240A128A158316031317
:101492002308BD002208BC002108BB002008BA00B6
:1014A2000A128A1550210A128A15831603133B0861
:1014B200CD003A08CC0042034304031D612A622A8C
:1014C2006C2A043087004C0892000C3083120313FC
:1014D200970095017C2A023042064304031D722ABA
:1014E200732A7C2A023087004C0892000C30831247
:1014F20003139D009B0183128C10073092008C1CF9
:10150200832A842A802A8C108316031387010800F9
:10151200831203139F188E2A8F2A902A9F148312F4
:101522000313BD01FF30BE001E30BF003C30C000BF
:101532008316031368080A168A1117270A128A15D6
:1015420083120313C500C6014508D3004608D40020
:10155200BD01FF30BE001E30BF002B30C00083161D
:10156200031366080A168A1117270A128A158312AC
:101572000313C500C601450883160313E000831256
:101582000313460883160313E10083120313BD01FC
:10159200FF30BE001430BF005030C000831603136A
:1015A20062080A168A1117270A128A158312031370
:1015B200C500C601450883160313DE008312031318
:1015C200460883160313DF0083120313BD01FF30A5
:1015D200BE001930BF003C30C000831603136408FC
:1015E2000A168A1117270A128A1583120313C500D5
:1015F200C601450883160313DC0083120313460851
:1016020083160313DD008312031312117030831645
:1016120003138F04831203135408AF005308AE0060
:101622000130B0000030B1000A168A1147270A12B1
:101632008A15831603135D0883120313AF00831602
:1016420003135C0883120313AE000830B0000030AD
:10165200B1000A168A1147270A128A158316031344
:101662000F088F3930388F0083120313121502309E
:10167200AE000030AF008316031361088312031318
:10168200B10083160313600883120313B0000A1615
:101692008A11B7270A128A15013083120313AE008A
:1016A2000030AF00831603135F0883120313B100E7
:1016B200831603135E0883120313B0000A168A11FD
:1016C200B7270A128A15831203135A08031D6A2BBD
:1016D2006B2B892A08008316031387013430C90053
:1016E2000630C8003730C700BD30C60081128111F4
:1016F2000108F839013881004508A7004408A6000E
:101702004308A5004208A4004430A3007A30A20096
:101712000030A1000030A0000A128A155A240A12D1
:101722008A15831603132308CD002208CC00210852
:10173200CB002008CA00490883120313BE00831697
:101742000313480883120313BD00831603134708CB
:1017520083120313BC008316031346088312031378
:10176200BB004030BA008030B9000030B800003011
:10177200B7000A128A11C8230A128A1583120313A8
:101782003A0883160313D100831203133908831610
:101792000313D00083120313380883160313CF00F8
:1017A20083120313370883160313CE004D08A700D4
:1017B2004C08A6004B08A5004A08A4004330A30029
:1017C2008030A2000030A1000030A0000A128A1569
:1017D2005A240A128A15831603132308D5002208F5
:1017E200D4002108D3002008D2005508A7005408CD
:1017F200A6005308A5005208A4005108831203133F
:10180200BE0083160313500883120313BD00831610
:1018120003134F0883120313BC00831603134E08ED
:1018220083120313BB004030BA008030B90000308D
:10183200B8000030B7000A128A11C8230A128A15AA
:10184200831203133A0883160313A30083120313AC
:10185200390883160313A200831203133808831670
:101862000313A10083120313370883160313A00086
:101872000A128A155A240A128A1583160313230898
:10188200BD002208BC002108BB002008BA000A12D1
:101892008A1550210A128A15831603133B08D900B0
:1018A2003A08D8000B115808003C83120313810038
:1018B20008008316031327088039B1002708A800FF
:1018C2002807B800A61F662C672C682C3814380825
:1018D20003196C2C6D2C7D2C380A031D712C722C73
:1018E2007A2C0030A7000030A6000030A50000309E
:1018F200A400A617A701852C0030A7000030A6007F
:101902000030A5000030A40023088039A800280870
:10191200B1062308A8002807B900A21F912C922C17
:10192200932C391439080319972C982CA82C390AAE
:10193200031D9C2C9D2CA52C0030A3000030A2007E
:101942000030A1000030A000A217A301B02C00308B
:10195200A3000030A2000030A1000030A000230844
:10196200220421042004031DB72CB82CD12C0030F2
:10197200A7000030A6000030A5000030A40080308F
:10198200A6047F30A7043108A8002808A704270866
:10199200A3002608A2002508A1002408A0002C2EDE
:1019A2003808031DD52CD62CDF2C0030A3000030C4
:1019B200A2000030A1000030A0002C2E3808A800A0
:1019C200A9012908AB0039082802AA00031CAB03AD
:1019D2002A087F3EB2002B080318013E003EB300E6
:1019E2002708B0002608AF002508AE002408AD0085
:1019F2000030A7000030A6000030A5000030A4008F
:101A02000030B7000030B6000030B5000030B4003E
:101A1200B901552D390803190F2D102D302D013024
:101A2200A8000310AD0DAE0DAF0DB00DA80B122D19
:101A32000130A8000310A40DA50DA60DA70DA80B3B
:101A42001B2DB71F252D262D272D24140130A8006C
:101A52000310B40DB50DB60DB70DA80B292D230833
:101A62003002031D3E2D22082F02031D3E2D2108A8
:101A72002E02031D3E2D20082D02031C412D422D56
:101A8200512D37172008AD022108031C210FAE0289
:101A92002208031C220FAF022308031C230FB002EB
:101AA2000130A8002808B9071A303902031C5A2D40
:101AB2005B2D0B2D30082F042E042D040319622DEB
:101AC200632D822D3414822D0130A8000310A40D41
:101AD200A50DA60DA70DA80B672DB71F712D722D91
:101AE200732D24140130A8000310B40DB50DB60DEA
:101AF200B70DA80B752DFF30B2070318B30AFF30DC
:101B0200B307A61F852D862D652DB901B71F8A2D16
:101B12008B2DA72DFF303405A800FF303505A90015
:101B2200FF303605AA007F303705AB002B082A04A8
:101B32002904280403199E2D9F2DA22DB901B90A4B
:101B4200A72D241CA52DA62DA72D9F2D39080319DD
:101B5200AB2DAC2DDD2D0130A40700300318013070
:101B6200A507003003180130A60700300318013022
:101B7200A707271CBD2DBE2DDD2D2408A800250892
:101B8200A9002608AA002708AB000130AC002B0DE3
:101B9200AB0CAA0CA90CA80CAC0BC82D2B08A700E7
:101BA2002A08A6002908A5002808A4000130B207C7
:101BB2000318B30A0030B3073308803AFF008030BD
:101BC2007F02031DE62DFF303202031CE92DEA2DB0
:101BD200F82DFF3083160313B2000030B30000303B
:101BE200A7000030A6000030A5000030A400831634
:101BF20003133308803AFF0080307F02031D032E57
:101C0200013032020318062E072E142E83160313F8
:101C1200B201B3010030A7000030A6000030A500D9
:101C22000030A400B101831603133208B800381C37
:101C32001B2E1C2E1E2EA617222E7F30A80028082F
:101C4200A6053808A8000310280CA7003108A80030
:101C52002808A704C82C08000A168A117B270A1232
:101C62008A15831203135B08031D382E392EC72EE3
:101C7200073089005A03031D3F2E402E322E1F10BB
:101C820060080A168A1159260A128A158316031346
:101C9200D600D701560883120313D3008316031309
:101CA200570883120313D4005F080A168A115926B3
:101CB2000A128A1583160313D600D7015608E000CC
:101CC2005708E100831203135E080A168A11592687
:101CD2000A128A1583160313D600D7015608DE00AE
:101CE2005708DF00831203135D080A168A1159266A
:101CF2000A128A1583160313D600D7015608DC0090
:101D02005708DD000130C2000030C3004130C70077
:101D1200A030C6000030C5000030C4000A128A1587
:101D2200DE210A128A15023083160313C200003024
:101D3200C3004130C700A030C6000030C5000030EB
:101D4200C4000A128A15DE210A128A15413083164E
:101D52000313C5007030C4000030C3000030C2005D
:101D62000A128A156C230A128A150A128A15D720BA
:101D72000A128A1583120313121170308316031389
:101D82008F048312031387018801322E5B03031D24
:101D9200CB2ECC2E172F013089005A03031DD22ED1
:101DA200D32E322E1F14013083160313C2000030CB
:101DB200C3004130C700A030C6000030C50000306B
:101DC200C4000A128A15DE210A128A15023083160D
:101DD2000313C2000030C3004130C700A030C60068
:101DE2000030C5000030C4000A128A15DE210A1232
:101DF2008A15413083160313C5007030C4000030C9
:101E0200C3000030C2000A128A156C230A128A1516
:101E12000A128A1589220A128A15831203131F10C5
:101E220012117030831603138F04C22E02305B0628
:101E3200031D1C2F1D2F812F023089005A03031D01
:101E4200232F242F322E7030831603138F04143065
:101E520083120313D3000030D4001430831603130B
:101E6200E0000030E1001430DE000030DF0014300A
:101E7200DC000030DD000130C2000030C300413020
:101E8200C700A030C6000030C5000030C4000A12EE
:101E92008A15DE210A128A15023083160313C20044
:101EA2000030C3004130C700A030C6000030C5007A
:101EB2000030C4000A128A15DE210A128A15413046
:101EC20083160313C5007030C4000030C300003015
:101ED200C2000A128A156C230A128A150A168A117E
:101EE20026260A128A150A128A110D270A128A1543
:101EF2008312031312117030831603138F04C22E40
:101F020003305B06031D862F872F322E0430890093
:101F12005A03031D8D2F8E2FF72F831603138C1652
:101F220070308F040A168A1126260A128A15831225
:101F320003139817F72F5C03031DA02FA12FEE2F79
:101F4200831603138C1283120313981370308316B3
:101F520003138F040130C2000030C3004130C700B8
:101F6200A030C6000030C5000030C4000A128A1535
:101F7200DE210A128A15023083160313C2000030D2
:101F8200C3004130C700A030C6000030C500003099
:101F9200C4000A128A15DE210A128A1541308316FC
:101FA2000313C5007030C4000030C3000030C2000B
:101FB2000A128A156C230A128A150A128A15D72068
:101FC2000A128A1583120313121170308316031337
:101FD2008F0483120313870188015A08031DF22F0D
:101FE200F32FF72FDC0181308800322E5A030319B8
:0E1FF200FB2FFC2F9C2F322E0A128A110E2874
:102C0E0064008001840A0406031900340406082EA9
:102C1E00F000831603178C18152E162E102E0C1876
:102C2E00192E1A2E102E7008831203178D0083167C
:102C3E0003178C130C14831203170C0808000C30A6
:102C4E008316031399009A0118118316031787111F
:102C5E008316031318128312031398178316031384
:102C6E009816831203130C1218168C120800F1001A
:102C7E00831603178C18442E452E3F2E710883128F
:102C8E0003178D0070088C00831603178C130C1518
:102C9E008B1355308D00AA308D008C140C110B1037
:102CAE008B17080083120313AE00831603178C18BC
:102CBE00612E622E5C2E0C18652E662E5C2E8312F3
:102CCE0003132E08831203178D00831603178C131C
:102CDE000C14831203170C080800F401F501701C84
:102CEE00792E7A2E802E7208F4070318F50A7308CF
:102CFE00F50701300310F20DF30DFF3E031D812E7B
:102D0E0001300310F10CF00CFF3E031D882E7008ED
:102D1E007104031D932E942E762E7508F1007408FF
:102D2E00F000080083120313B201B3012E1CA02E73
:102D3E00A12EA72E3008B2070318B30A3108B30725
:102D4E0001300310B00DB10DFF3E031DA82E013052
:102D5E000310AF0CAE0CFF3E031DAF2E2E082F043A
:102D6E00031DBA2EBB2E9D2E3308AF003208AE00C7
:102D7E00080083120313B600B201B3012E08B0008F
:102D8E00B1013008B4003108B500361CCF2ED02E5C
:102D9E00D62E3408B2070318B30A3508B30701302C
:102DAE000310B40DB50DFF3E031DD72E0310B60C48
:102DBE003608031DE32EE42ECC2E3308AF00320866
:102DCE00AE00080083120313A80024082502F600A3
:102DDE00F701031CF70324082802F000F101031C7D
:102DEE00F10326082702F200F301031CF3030A166F
:102DFE008A1174260A168A117108F9007008F800F3
:102E0E000A128A1505200A168A117608FB00770821
:102E1E00FC008312031326087B07A900290808006B
:102E2E0083120313C3003D083E02B400B501031C18
:102E3E00B5033D084302AE00AF01031CAF033F08CC
:102E4E004002B000B101031CB1030A168A11992683
:102E5E000A168A11831203132F08B7002E08B60024
:102E6E000A128A156E200A168A1183120313340869
:102E7E00C1003508C2003F084107C40044080800DD
:102E8E0083120313300887000B1D4E2F4F2F5F2F19
:102E9E00831603135A08023EDA005B080318013E3C
:102EAE00003EDB005808003C8312031381000B1117
:102EBE00831603135B08803A83120313B2002F08A4
:102ECE00803A3202031D6F2F2E08831603135A0207
:102EDE00031C722F732F4B2F83160313DA01DB01A2
:102EEE0083120313870108008316031789011F300D
:102EFE008316031386008801890183120313880148
:102F0E00890185018316031381131F3095001F302D
:102F1E00960070308F040F14831203130C13831654
:102F2E0003130C178C168B170B170B108B150F30FA
:102F3E008316031788000F30831603138500831240
:102F4E0003131F083F3980389F00C3309F05831637
:102F5E0003139F131F129F12831203131F100800D7
:102F6E00831203132E032F04031DBE2FBF2FDC2F3E
:102F7E003108B3003008B200330DB30CB20C330D70
:102F8E00B30CB20C320895001708CF3997003008F1
:102F9E00B20003300310B20DFF3E031DD12F0310FC
:102FAE00320D303917049700FF2F02302E062F04F2
:102FBE00031DE22FE32FFF2F3108B3003008B200BC
:102FCE00330DB30CB20C330DB30CB20C32089B00A4
:102FDE001D08CF399D003008B20003300310B20D2A
:102FEE00FF3E031DF52F0310320D30391D049D00D9
:022FFE000800C9
:08400000FF3FFF3FFF3FFF3FC0
:04400E00D420FF3F7C
:00000001FF
